:100000000C942A000C9447000C9447000C94470071
:100010000C9447000C9447000C9447000C94470044
:100020000C9447000C9447000C9447000C94490032
:100030000C9447000C9447000C9447000C94470024
:100040000C9447000C9447000C9447000C94470014
:100050000C94470011241FBECFE5D8E0DEBFCDBF12
:1000600010E0A0E6B0E0E0E6F4E002C005900D92FA
:10007000A036B107D9F720E0A0E6B0E001C01D929C
:10008000AC36B207E1F70E9475000C942E020C9476
:1000900000001F920F920FB60F9211248F939F931F
:1000A00080916A0090916B00019690936B00809311
:1000B0006A0012BE9F918F910F900FBE0F901F90FC
:1000C000189580E182BB85E085BB089580E282BB04
:1000D0008AE085BB089580E482BB88E085BB0895F3
:1000E00080E882BB82E085BB08958FE084BB80EF0F
:1000F00081BBD09AD1988FEF87BB82E083BF12BEBD
:100100001CBE89B7816089BF7894BB24B39402E098
:100110001B2D1BBB28E22A95F1F71BBAC99BFECF0A
:1001200010926B0010926A0012BE03BFC999FECFF5
:1001300013BE82B790916A00D92F20E0C22F6E01C2
:10014000C80ED11C0D2C000CEE08FF08C0926600F2
:10015000D0926700E0926800F0926900C701B60192
:1001600096958795779567950E940F0121E233E96F
:100170004CE05DE30E947001609362007093630045
:10018000809364009093650020E3C21625E7D206B1
:10019000E104F10408F0BDCF20E030E040EA50E493
:1001A0000E940A01882324F4B8BA12BA15BA28C0EA
:1001B00018BA80916000909161000196909361005F
:1001C000809360008130910519F40E94610018C08D
:1001D0008A30910519F40E94660012C0843191059D
:1001E00019F40E946B000CC08E31910519F40E9425
:1001F000700006C0889721F4109261001092600090
:100200008FEF94E32CE0815090402040E1F700C054
:1002100000007FCF0E944C0108F481E00895E8942B
:1002200009C097FB3EF490958095709561957F4F3E
:100230008F4F9F4F9923A9F0F92F96E9BB279395EC
:10024000F695879577956795B795F111F8CFFAF4FC
:10025000BB0F11F460FF1BC06F5F7F4F8F4F9F4F2D
:1002600016C0882311F096E911C0772321F09EE88B
:10027000872F762F05C0662371F096E8862F70E0F1
:1002800060E02AF09A95660F771F881FDAF7880FCB
:100290009695879597F90895990F0008550FAA0B21
:1002A000E0E8FEEF16161706E807F907C0F0121689
:1002B0001306E407F50798F0621B730B840B950B8C
:1002C00039F40A2661F0232B242B252B21F40895E1
:1002D0000A2609F4A140A6958FEF811D811D08957E
:1002E0000E9483010C94F4010E94E60138F00E9400
:1002F000ED0120F0952311F00C94DD010C94E30145
:1003000011240C9428020E94050270F3959FC1F3FA
:10031000950F50E0551F629FF001729FBB27F00DB3
:10032000B11D639FAA27F00DB11DAA1F649F662708
:10033000B00DA11D661F829F2227B00DA11D621F57
:10034000739FB00DA11D621F839FA00D611D221F11
:10035000749F3327A00D611D231F849F600D211DF5
:10036000822F762F6A2F11249F5750409AF0F1F078
:1003700088234AF0EE0FFF1FBB1F661F771F881FE1
:1003800091505040A9F79E3F510580F00C94DD013B
:100390000C9428025F3FE4F3983ED4F3869577955A
:1003A0006795B795F795E7959F5FC1F7FE2B880F87
:1003B000911D9695879597F9089597F99F6780E81D
:1003C00070E060E008959FEF80EC089500240A94A7
:1003D0001616170618060906089500240A94121620
:1003E0001306140605060895092E0394000C11F453
:1003F000882352F0BB0F40F4BF2B11F460FF04C000
:100400006F5F7F4F8F4F9F4F089557FD9058440F58
:10041000551F59F05F3F71F04795880F97FB991F63
:1004200061F09F3F79F08795089512161306140620
:10043000551FF2CF4695F1DF08C0161617061806AD
:10044000991FF1CF86957105610508940895E89488
:10045000BB2766277727CB0197F90895F894FFCF3C
:00000001FF
